:10000000FA2900308A000408840A82070034783410
:100010002D3449344D34553433342D345334413434
:100020002D34443433342034763431342E34303467
:080030002E3432340A3400348E
:1002F800C0004008CC0097210800C0004008B000AA
:100308006300301008008E294108840001207C21F8
:100318000130C107410884000120003A031D9529D6
:10032800962988290800CC000A30CB008710A32919
:100338000708FD394C18023887000314CC0C083024
:10034800CA00CA0BA529CB0B9C2908007030900461
:10035800881086108714081008118E1309140915BF
:100368008915133081210130C10087210508C80093
:1003780049084806031DC129C229C329BA294808C2
:10038800C9004818C829C929CE293030C200003010
:10039800C300D2293130C2000030C30042087C219A
:1003A8002C307C21C819D929DA29DF293030C4003A
:1003B8000030C500E3293130C4000030C5004408CE
:1003C8007C212C307C214819EA29EB29F02930308E
:1003D800C6000030C700F4293130C6000030C7001D
:1003E80046087C210A307C21BA290028C901CA01A3
:0803F800CB01CC018301AA290D
:02400E00AE3EC4
:00000001FF
