:10000000FA2900308A000408840A82070034783410
:100010002D3449344D34553433342D345334413434
:100020002D34443433342034763431342E34303467
:080030002E3431340A3400348F
:1002F400C0004008CC0098210800C0004008B000AD
:10030400630030100800C1008F29410884000120D7
:100314007A210130FF007F08C107410884000120D1
:10032400003A031D9629972987290800CC000A3032
:10033400CB008710A4290708FD394C180238870020
:100344000314CC0C0830CA00CA0BA629CB0B9D2978
:100354000800703090048810861087140810081163
:100364008E1309140915891513307F210130852155
:100374000508C80049084806031DC129C229C32924
:10038400BA294808C9004818C829C929CE293030D3
:10039400C2000030C300D2293130C2000030C30093
:1003A40042087A212C307A21C819D929DA29DF297F
:1003B4003030C4000030C500E3293130C4000030BF
:1003C400C50044087A212C307A214819EA29EB29FE
:1003D400F0293030C6000030C700F4293130C6009F
:1003E4000030C70046087A210A307A21BA29002849
:0C03F400C901CA01CB01CC018301AB2977
:02400E00AE3EC4
:00000001FF
